:100000000C9434000C943E000C943E000C943E0082
:100010000C943E000C943E000C943E000C943E0068
:100020000C943E000C943E000C943E000C947A001C
:100030000C943E000C943E000C943E000C943E0048
:100040000C9484000C943E000C943E000C943E00F2
:100050000C943E000C94A8000C943E000C943E00BE
:100060000C943E000C943E0011241FBECFEFD8E04C
:10007000DEBFCDBF0E94B2000C94B5000C9400000E
:10008000EAE7F0E0808180648083808186FDFDCF97
:100090008091790087BD089582E084B917B890E413
:1000A0009AB98FEF88B98BB983E884BD85B5826032
:1000B00085BDEEE6F0E080818160808317BC90937F
:1000C00080008CE080938100EFE6F0E08081826028
:1000D000808382E19AE7909389008093880080E68C
:1000E00080937C0087E880937A0084E080937B0093
:1000F000789408951F920F920FB60F9211240F90CB
:100100000FBE0F901F9018951F920F920FB60F926F
:1001100011242F933F934F935F936F937F938F930C
:100120009F93AF93BF93EF93FF930E944000FF9183
:10013000EF91BF91AF919F918F917F916F915F915F
:100140004F913F912F910F900FBE0F901F901895D8
:100150001F920F920FB60F9211240F900FBE0F90A7
:0E0160001F9018950E944C00FFCFF894FFCF1F
:00000001FF
