:100000000C9434000C943E000C943E000C943E0082
:100010000C943E000C943E000C943E000C943E0068
:100020000C943E000C943E000C943E000C94400056
:100030000C943E000C943E000C943E000C943E0048
:100040000C944A000C943E000C943E000C943E002C
:100050000C943E000C9454000C943E000C943E0012
:100060000C943E000C943E0011241FBECFEFD8E04C
:10007000DEBFCDBF0E9490000C9493000C94000052
:100080001F920F920FB60F9211240F900FBE0F9078
:100090001F9018951F920F920FB60F9211240F9078
:1000A0000FBE0F901F9018951F920F920FB60F92D0
:1000B00011248F938091790087BD8F910F900FBE8F
:1000C0000F901F90189582E084B917B890E49AB900
:1000D0008FEF88B98BB983E884BD85E085BDEEE6F6
:1000E000F0E080818160808317BC909380008CE079
:1000F00080938100EFE6F0E080818260808382E17E
:100100009AE7909389008093880080E680937C0032
:100110008FEA80937A0084E080937B00789408953E
:0A0120000E946300FFCFF894FFCFA8
:00000001FF
