:100000000C9434000C943E000C943E000C943E0082
:100010000C943E000C943E000C943E000C943E0068
:100020000C943E000C943E000C943E000C94400056
:100030000C943E000C943E000C943E000C943E0048
:100040000C944B000C943E000C943E000C943E002B
:100050000C943E000C9459000C943E000C943E000D
:100060000C943E000C943E0011241FBECFEFD8E04C
:10007000DEBFCDBF0E9495000C9498000C94000048
:100080001F920F920FB60F9211242A980F900FBE55
:100090000F901F9018951F920F920FB60F92112478
:1000A0008F9384E085B98F910F900FBE0F901F90B2
:1000B00018951F920F920FB60F9211248F93809173
:1000C000790087BD8F910F900FBE0F901F901895EC
:1000D00086E084B917B880EC8AB98FEF88B983E8D5
:1000E00084BD85E085BDEEE6F0E08081816080839F
:1000F00017BC80E4809380008CE080938100EFE661
:10010000F0E080818260808382E19AE790938900A9
:100110008093880080E680937C008FEA80937A0049
:1001200084E080937B00789408950E946800FFCF5C
:04013000F894FFCF71
:00000001FF
