S01200004C414253495F534D5F322E7372656317
S11300000C9434000C943E000C943E000C943E007E
S11300100C943E000C943E000C943E000C943E0064
S11300200C943E000C943E000C943E000C94400052
S11300300C943E000C943E000C943E000C943E0044
S11300400C943E000C943E000C943E000C943E0034
S11300500C943E000C943E000C943E000C943E0024
S11300600C943E000C943E0011241FBECFEFD8E048
S1130070DEBFCDBF0E945C000C945F000C940000B6
S11300801F920F920FB60F9211240F900FBE0F9074
S11300901F90189582E084B915B890E4909380007D
S11300A09CE09093810022E13AE730938900209309
S11300B0880080936F0008950E944A00FFCFF8944F
S10500C0FFCF6C
S9030000FC
